{
  "_format": "hh-sol-artifact-1",
  "contractName": "EducationalCredential",
  "sourceName": "contracts/EducationalCredential.sol",
  "abi": [
    {
      "inputs": [],
      "stateMutability": "nonpayable",
      "type": "constructor"
    },
    {
      "anonymous": false,
      "inputs": [
        {
          "indexed": true,
          "internalType": "uint256",
          "name": "certificateId",
          "type": "uint256"
        },
        {
          "indexed": true,
          "internalType": "address",
          "name": "studentAddress",
          "type": "address"
        },
        {
          "indexed": false,
          "internalType": "bytes32",
          "name": "studentNameHash",
          "type": "bytes32"
        },
        {
          "indexed": false,
          "internalType": "bytes32",
          "name": "degree",
          "type": "bytes32"
        },
        {
          "indexed": false,
          "internalType": "uint256",
          "name": "issueDate",
          "type": "uint256"
        }
      ],
      "name": "CertificateIssued",
      "type": "event"
    },
    {
      "anonymous": false,
      "inputs": [
        {
          "indexed": true,
          "internalType": "uint256",
          "name": "certificateId",
          "type": "uint256"
        }
      ],
      "name": "CertificateVerified",
      "type": "event"
    },
    {
      "inputs": [
        {
          "internalType": "uint256",
          "name": "",
          "type": "uint256"
        }
      ],
      "name": "certificatesById",
      "outputs": [
        {
          "internalType": "address",
          "name": "issuer",
          "type": "address"
        },
        {
          "internalType": "bytes32",
          "name": "studentNameHash",
          "type": "bytes32"
        },
        {
          "internalType": "bytes32",
          "name": "degree",
          "type": "bytes32"
        },
        {
          "internalType": "uint256",
          "name": "issueDate",
          "type": "uint256"
        },
        {
          "internalType": "enum EducationalCredential.Status",
          "name": "status",
          "type": "uint8"
        }
      ],
      "stateMutability": "view",
      "type": "function"
    },
    {
      "inputs": [
        {
          "internalType": "address",
          "name": "",
          "type": "address"
        },
        {
          "internalType": "uint256",
          "name": "",
          "type": "uint256"
        }
      ],
      "name": "certificatesByStudent",
      "outputs": [
        {
          "internalType": "address",
          "name": "issuer",
          "type": "address"
        },
        {
          "internalType": "bytes32",
          "name": "studentNameHash",
          "type": "bytes32"
        },
        {
          "internalType": "bytes32",
          "name": "degree",
          "type": "bytes32"
        },
        {
          "internalType": "uint256",
          "name": "issueDate",
          "type": "uint256"
        },
        {
          "internalType": "enum EducationalCredential.Status",
          "name": "status",
          "type": "uint8"
        }
      ],
      "stateMutability": "view",
      "type": "function"
    },
    {
      "inputs": [
        {
          "internalType": "uint256",
          "name": "_certificateId",
          "type": "uint256"
        }
      ],
      "name": "getCertificateDetails",
      "outputs": [
        {
          "internalType": "address",
          "name": "issuer",
          "type": "address"
        },
        {
          "internalType": "bytes32",
          "name": "studentNameHash",
          "type": "bytes32"
        },
        {
          "internalType": "bytes32",
          "name": "degree",
          "type": "bytes32"
        },
        {
          "internalType": "uint256",
          "name": "issueDate",
          "type": "uint256"
        },
        {
          "internalType": "enum EducationalCredential.Status",
          "name": "status",
          "type": "uint8"
        }
      ],
      "stateMutability": "view",
      "type": "function"
    },
    {
      "inputs": [
        {
          "internalType": "address",
          "name": "_studentAddress",
          "type": "address"
        }
      ],
      "name": "getNumberOfCertificates",
      "outputs": [
        {
          "internalType": "uint256",
          "name": "",
          "type": "uint256"
        }
      ],
      "stateMutability": "view",
      "type": "function"
    },
    {
      "inputs": [
        {
          "internalType": "address",
          "name": "_studentAddress",
          "type": "address"
        },
        {
          "internalType": "bytes32",
          "name": "_studentNameHash",
          "type": "bytes32"
        },
        {
          "internalType": "bytes32",
          "name": "_degree",
          "type": "bytes32"
        }
      ],
      "name": "issueCertificate",
      "outputs": [
        {
          "internalType": "uint256",
          "name": "",
          "type": "uint256"
        }
      ],
      "stateMutability": "nonpayable",
      "type": "function"
    },
    {
      "inputs": [],
      "name": "owner",
      "outputs": [
        {
          "internalType": "address",
          "name": "",
          "type": "address"
        }
      ],
      "stateMutability": "view",
      "type": "function"
    },
    {
      "inputs": [
        {
          "internalType": "uint256",
          "name": "_certificateId",
          "type": "uint256"
        }
      ],
      "name": "verifyCertificate",
      "outputs": [],
      "stateMutability": "nonpayable",
      "type": "function"
    }
  ],
  "bytecode": "0x6080604052600160025534801561001557600080fd5b5033600360006101000a81548173ffffffffffffffffffffffffffffffffffffffff021916908373ffffffffffffffffffffffffffffffffffffffff160217905550610e78806100666000396000f3fe608060405234801561001057600080fd5b506004361061007d5760003560e01c80635d38b2161161005b5780635d38b2161461010257806385a32ca3146101325780638da5cb5b14610166578063a901fe5e146101845761007d565b80631692a942146100825780634a5e5af81461009e5780635aa0bac6146100ce575b600080fd5b61009c600480360381019061009791906108ff565b6101b8565b005b6100b860048036038101906100b391906109c0565b6102a4565b6040516100c59190610a22565b60405180910390f35b6100e860048036038101906100e39190610a3d565b6105f8565b6040516100f9959493929190610b12565b60405180910390f35b61011c60048036038101906101179190610b65565b610678565b6040516101299190610a22565b60405180910390f35b61014c600480360381019061014791906108ff565b6106c3565b60405161015d959493929190610b12565b60405180910390f35b61016e610726565b60405161017b9190610b92565b60405180910390f35b61019e600480360381019061019991906108ff565b61074c565b6040516101af959493929190610b12565b60405180910390f35b60006001600083815260200190815260200160002090506001808111156101e2576101e1610a9b565b5b8160040160009054906101000a900460ff16600181111561020657610205610a9b565b5b03610246576040517f08c379a000000000000000000000000000000000000000000000000000000000815260040161023d90610c0a565b60405180910390fd5b60018160040160006101000a81548160ff0219169083600181111561026e5761026d610a9b565b5b0217905550817f9772aa462f25880cc6f720ec34acf03566e8e3241372722a91a7467ed64080ee60405160405180910390a25050565b6000600360009054906101000a900473ffffffffffffffffffffffffffffffffffffffff1673ffffffffffffffffffffffffffffffffffffffff163373ffffffffffffffffffffffffffffffffffffffff1614610336576040517f08c379a000000000000000000000000000000000000000000000000000000000815260040161032d90610c9c565b60405180910390fd5b6000801b820361037b576040517f08c379a000000000000000000000000000000000000000000000000000000000815260040161037290610d08565b60405180910390fd5b600060025490506002600081548092919061039590610d57565b919050555060006040518060a001604052803373ffffffffffffffffffffffffffffffffffffffff168152602001868152602001858152602001428152602001600060018111156103e9576103e8610a9b565b5b81525090506000808773ffffffffffffffffffffffffffffffffffffffff1673ffffffffffffffffffffffffffffffffffffffff16815260200190815260200160002081908060018154018082558091505060019003906000526020600020906005020160009091909190915060008201518160000160006101000a81548173ffffffffffffffffffffffffffffffffffffffff021916908373ffffffffffffffffffffffffffffffffffffffff16021790555060208201518160010155604082015181600201556060820151816003015560808201518160040160006101000a81548160ff021916908360018111156104e6576104e5610a9b565b5b02179055505050806001600084815260200190815260200160002060008201518160000160006101000a81548173ffffffffffffffffffffffffffffffffffffffff021916908373ffffffffffffffffffffffffffffffffffffffff16021790555060208201518160010155604082015181600201556060820151816003015560808201518160040160006101000a81548160ff0219169083600181111561059157610590610a9b565b5b02179055509050508573ffffffffffffffffffffffffffffffffffffffff16827fe649092c3c559ac16ffc0fdae1ddc8447e460b2d3f8e1050fb73af951007e8df8787426040516105e493929190610d9f565b60405180910390a381925050509392505050565b6000602052816000526040600020818154811061061457600080fd5b9060005260206000209060050201600091509150508060000160009054906101000a900473ffffffffffffffffffffffffffffffffffffffff16908060010154908060020154908060030154908060040160009054906101000a900460ff16905085565b60008060008373ffffffffffffffffffffffffffffffffffffffff1673ffffffffffffffffffffffffffffffffffffffff168152602001908152602001600020805490509050919050565b60016020528060005260406000206000915090508060000160009054906101000a900473ffffffffffffffffffffffffffffffffffffffff16908060010154908060020154908060030154908060040160009054906101000a900460ff16905085565b600360009054906101000a900473ffffffffffffffffffffffffffffffffffffffff1681565b600080600080600080600160008881526020019081526020016000206040518060a00160405290816000820160009054906101000a900473ffffffffffffffffffffffffffffffffffffffff1673ffffffffffffffffffffffffffffffffffffffff1673ffffffffffffffffffffffffffffffffffffffff1681526020016001820154815260200160028201548152602001600382015481526020016004820160009054906101000a900460ff16600181111561080c5761080b610a9b565b5b600181111561081e5761081d610a9b565b5b815250509050600073ffffffffffffffffffffffffffffffffffffffff16816000015173ffffffffffffffffffffffffffffffffffffffff1603610897576040517f08c379a000000000000000000000000000000000000000000000000000000000815260040161088e90610e22565b60405180910390fd5b80600001518160200151826040015183606001518460800151955095509550955095505091939590929450565b600080fd5b6000819050919050565b6108dc816108c9565b81146108e757600080fd5b50565b6000813590506108f9816108d3565b92915050565b600060208284031215610915576109146108c4565b5b6000610923848285016108ea565b91505092915050565b600073ffffffffffffffffffffffffffffffffffffffff82169050919050565b60006109578261092c565b9050919050565b6109678161094c565b811461097257600080fd5b50565b6000813590506109848161095e565b92915050565b6000819050919050565b61099d8161098a565b81146109a857600080fd5b50565b6000813590506109ba81610994565b92915050565b6000806000606084860312156109d9576109d86108c4565b5b60006109e786828701610975565b93505060206109f8868287016109ab565b9250506040610a09868287016109ab565b9150509250925092565b610a1c816108c9565b82525050565b6000602082019050610a376000830184610a13565b92915050565b60008060408385031215610a5457610a536108c4565b5b6000610a6285828601610975565b9250506020610a73858286016108ea565b9150509250929050565b610a868161094c565b82525050565b610a958161098a565b82525050565b7f4e487b7100000000000000000000000000000000000000000000000000000000600052602160045260246000fd5b60028110610adb57610ada610a9b565b5b50565b6000819050610aec82610aca565b919050565b6000610afc82610ade565b9050919050565b610b0c81610af1565b82525050565b600060a082019050610b276000830188610a7d565b610b346020830187610a8c565b610b416040830186610a8c565b610b4e6060830185610a13565b610b5b6080830184610b03565b9695505050505050565b600060208284031215610b7b57610b7a6108c4565b5b6000610b8984828501610975565b91505092915050565b6000602082019050610ba76000830184610a7d565b92915050565b600082825260208201905092915050565b7f436572746966696361746520616c726561647920766572696669656400000000600082015250565b6000610bf4601c83610bad565b9150610bff82610bbe565b602082019050919050565b60006020820190508181036000830152610c2381610be7565b9050919050565b7f4f6e6c79206f776e65722063616e2063616c6c20746869732066756e6374696f60008201527f6e00000000000000000000000000000000000000000000000000000000000000602082015250565b6000610c86602183610bad565b9150610c9182610c2a565b604082019050919050565b60006020820190508181036000830152610cb581610c79565b9050919050565b7f446567726565206e616d652063616e6e6f7420626520656d7074790000000000600082015250565b6000610cf2601b83610bad565b9150610cfd82610cbc565b602082019050919050565b60006020820190508181036000830152610d2181610ce5565b9050919050565b7f4e487b7100000000000000000000000000000000000000000000000000000000600052601160045260246000fd5b6000610d62826108c9565b91507fffffffffffffffffffffffffffffffffffffffffffffffffffffffffffffffff8203610d9457610d93610d28565b5b600182019050919050565b6000606082019050610db46000830186610a8c565b610dc16020830185610a8c565b610dce6040830184610a13565b949350505050565b7f4365727469666963617465206e6f7420666f756e640000000000000000000000600082015250565b6000610e0c601583610bad565b9150610e1782610dd6565b602082019050919050565b60006020820190508181036000830152610e3b81610dff565b905091905056fea264697066735822122058678124e5a32705e17696a54027471b4b796cbf38e3a2687b1c9e50eae3377464736f6c63430008180033",
  "linkReferences": {},
  "deployedLinkReferences": {}
}