{
  "_format": "hh-sol-artifact-1",
  "contractName": "EducationalCredential",
  "sourceName": "contracts/EducationalCredential.sol",
  "abi": [
    {
      "inputs": [],
      "stateMutability": "nonpayable",
      "type": "constructor"
    },
    {
      "inputs": [
        {
          "internalType": "address",
          "name": "owner",
          "type": "address"
        }
      ],
      "name": "OwnableInvalidOwner",
      "type": "error"
    },
    {
      "inputs": [
        {
          "internalType": "address",
          "name": "account",
          "type": "address"
        }
      ],
      "name": "OwnableUnauthorizedAccount",
      "type": "error"
    },
    {
      "anonymous": false,
      "inputs": [
        {
          "indexed": true,
          "internalType": "address",
          "name": "studentAddress",
          "type": "address"
        },
        {
          "indexed": false,
          "internalType": "bytes32",
          "name": "studentNameHash",
          "type": "bytes32"
        },
        {
          "indexed": false,
          "internalType": "bytes32",
          "name": "degree",
          "type": "bytes32"
        },
        {
          "indexed": false,
          "internalType": "uint256",
          "name": "issueDate",
          "type": "uint256"
        }
      ],
      "name": "CertificateIssued",
      "type": "event"
    },
    {
      "anonymous": false,
      "inputs": [
        {
          "indexed": true,
          "internalType": "address",
          "name": "studentAddress",
          "type": "address"
        },
        {
          "indexed": false,
          "internalType": "uint256",
          "name": "certificateIndex",
          "type": "uint256"
        },
        {
          "indexed": false,
          "internalType": "enum EducationalCredential.Status",
          "name": "status",
          "type": "uint8"
        }
      ],
      "name": "CertificateStatusUpdated",
      "type": "event"
    },
    {
      "anonymous": false,
      "inputs": [
        {
          "indexed": true,
          "internalType": "address",
          "name": "previousOwner",
          "type": "address"
        },
        {
          "indexed": true,
          "internalType": "address",
          "name": "newOwner",
          "type": "address"
        }
      ],
      "name": "OwnershipTransferred",
      "type": "event"
    },
    {
      "inputs": [
        {
          "internalType": "address",
          "name": "",
          "type": "address"
        },
        {
          "internalType": "uint256",
          "name": "",
          "type": "uint256"
        }
      ],
      "name": "certificates",
      "outputs": [
        {
          "internalType": "address",
          "name": "issuer",
          "type": "address"
        },
        {
          "internalType": "bytes32",
          "name": "studentNameHash",
          "type": "bytes32"
        },
        {
          "internalType": "bytes32",
          "name": "degree",
          "type": "bytes32"
        },
        {
          "internalType": "uint256",
          "name": "issueDate",
          "type": "uint256"
        },
        {
          "internalType": "enum EducationalCredential.Status",
          "name": "status",
          "type": "uint8"
        }
      ],
      "stateMutability": "view",
      "type": "function"
    },
    {
      "inputs": [
        {
          "internalType": "address",
          "name": "_studentAddress",
          "type": "address"
        }
      ],
      "name": "getCertificateCount",
      "outputs": [
        {
          "internalType": "uint256",
          "name": "",
          "type": "uint256"
        }
      ],
      "stateMutability": "view",
      "type": "function"
    },
    {
      "inputs": [
        {
          "internalType": "address",
          "name": "_studentAddress",
          "type": "address"
        },
        {
          "internalType": "uint256",
          "name": "_certificateIndex",
          "type": "uint256"
        }
      ],
      "name": "getCertificateDetails",
      "outputs": [
        {
          "internalType": "address",
          "name": "issuer",
          "type": "address"
        },
        {
          "internalType": "bytes32",
          "name": "studentNameHash",
          "type": "bytes32"
        },
        {
          "internalType": "bytes32",
          "name": "degree",
          "type": "bytes32"
        },
        {
          "internalType": "uint256",
          "name": "issueDate",
          "type": "uint256"
        },
        {
          "internalType": "enum EducationalCredential.Status",
          "name": "status",
          "type": "uint8"
        }
      ],
      "stateMutability": "view",
      "type": "function"
    },
    {
      "inputs": [
        {
          "internalType": "address",
          "name": "_studentAddress",
          "type": "address"
        },
        {
          "internalType": "bytes32",
          "name": "_studentNameHash",
          "type": "bytes32"
        },
        {
          "internalType": "bytes32",
          "name": "_degree",
          "type": "bytes32"
        }
      ],
      "name": "issueCertificate",
      "outputs": [],
      "stateMutability": "nonpayable",
      "type": "function"
    },
    {
      "inputs": [],
      "name": "owner",
      "outputs": [
        {
          "internalType": "address",
          "name": "",
          "type": "address"
        }
      ],
      "stateMutability": "view",
      "type": "function"
    },
    {
      "inputs": [],
      "name": "renounceOwnership",
      "outputs": [],
      "stateMutability": "nonpayable",
      "type": "function"
    },
    {
      "inputs": [
        {
          "internalType": "address",
          "name": "newOwner",
          "type": "address"
        }
      ],
      "name": "transferOwnership",
      "outputs": [],
      "stateMutability": "nonpayable",
      "type": "function"
    },
    {
      "inputs": [
        {
          "internalType": "address",
          "name": "_studentAddress",
          "type": "address"
        },
        {
          "internalType": "uint256",
          "name": "_certificateIndex",
          "type": "uint256"
        },
        {
          "internalType": "enum EducationalCredential.Status",
          "name": "_status",
          "type": "uint8"
        }
      ],
      "name": "updateCertificateStatus",
      "outputs": [],
      "stateMutability": "nonpayable",
      "type": "function"
    }
  ],
  "bytecode": "0x608060405234801561001057600080fd5b5033600073ffffffffffffffffffffffffffffffffffffffff168173ffffffffffffffffffffffffffffffffffffffff16036100845760006040517f1e4fbdf700000000000000000000000000000000000000000000000000000000815260040161007b919061019e565b60405180910390fd5b6100938161009960201b60201c565b506101b9565b60008060009054906101000a900473ffffffffffffffffffffffffffffffffffffffff169050816000806101000a81548173ffffffffffffffffffffffffffffffffffffffff021916908373ffffffffffffffffffffffffffffffffffffffff1602179055508173ffffffffffffffffffffffffffffffffffffffff168173ffffffffffffffffffffffffffffffffffffffff167f8be0079c531659141344cd1fd0a4f28419497f9722a3daafe3b4186f6b6457e060405160405180910390a35050565b600073ffffffffffffffffffffffffffffffffffffffff82169050919050565b60006101888261015d565b9050919050565b6101988161017d565b82525050565b60006020820190506101b3600083018461018f565b92915050565b610e9a806101c86000396000f3fe608060405234801561001057600080fd5b50600436106100885760003560e01c80638da5cb5b1161005b5780638da5cb5b14610103578063b1d5ccf814610121578063df6169b814610151578063f2fde38b1461018557610088565b806346f3141c1461008d5780634a5e5af8146100c15780634f232cff146100dd578063715018a6146100f9575b600080fd5b6100a760048036038101906100a29190610a51565b6101a1565b6040516100b8959493929190610b3f565b60405180910390f35b6100db60048036038101906100d69190610bbe565b610221565b005b6100f760048036038101906100f29190610c36565b610414565b005b61010161057f565b005b61010b610593565b6040516101189190610c89565b60405180910390f35b61013b60048036038101906101369190610ca4565b6105bc565b6040516101489190610cd1565b60405180910390f35b61016b60048036038101906101669190610a51565b610608565b60405161017c959493929190610b3f565b60405180910390f35b61019f600480360381019061019a9190610ca4565b6107df565b005b600160205281600052604060002081815481106101bd57600080fd5b9060005260206000209060050201600091509150508060000160009054906101000a900473ffffffffffffffffffffffffffffffffffffffff16908060010154908060020154908060030154908060040160009054906101000a900460ff16905085565b610229610865565b6000801b810361026e576040517f08c379a000000000000000000000000000000000000000000000000000000000815260040161026590610d49565b60405180910390fd5b600160008473ffffffffffffffffffffffffffffffffffffffff1673ffffffffffffffffffffffffffffffffffffffff1681526020019081526020016000206040518060a001604052803373ffffffffffffffffffffffffffffffffffffffff168152602001848152602001838152602001428152602001600060028111156102fa576102f9610ac8565b5b815250908060018154018082558091505060019003906000526020600020906005020160009091909190915060008201518160000160006101000a81548173ffffffffffffffffffffffffffffffffffffffff021916908373ffffffffffffffffffffffffffffffffffffffff16021790555060208201518160010155604082015181600201556060820151816003015560808201518160040160006101000a81548160ff021916908360028111156103b6576103b5610ac8565b5b021790555050508273ffffffffffffffffffffffffffffffffffffffff167fd8b2401525906fa1b2d32e25bf1176771100b6961b177b5f327744ee2b5fb42683834260405161040793929190610d69565b60405180910390a2505050565b61041c610865565b600160008473ffffffffffffffffffffffffffffffffffffffff1673ffffffffffffffffffffffffffffffffffffffff1681526020019081526020016000208054905082106104a0576040517f08c379a000000000000000000000000000000000000000000000000000000000815260040161049790610dec565b60405180910390fd5b80600160008573ffffffffffffffffffffffffffffffffffffffff1673ffffffffffffffffffffffffffffffffffffffff16815260200190815260200160002083815481106104f2576104f1610e0c565b5b906000526020600020906005020160040160006101000a81548160ff0219169083600281111561052557610524610ac8565b5b02179055508273ffffffffffffffffffffffffffffffffffffffff167f5d565eadd1a05071cacc4f16c4a13d4e4c904cdafa535291f37ccc2dcf5911bf8383604051610572929190610e3b565b60405180910390a2505050565b610587610865565b61059160006108ec565b565b60008060009054906101000a900473ffffffffffffffffffffffffffffffffffffffff16905090565b6000600160008373ffffffffffffffffffffffffffffffffffffffff1673ffffffffffffffffffffffffffffffffffffffff168152602001908152602001600020805490509050919050565b6000806000806000600160008873ffffffffffffffffffffffffffffffffffffffff1673ffffffffffffffffffffffffffffffffffffffff168152602001908152602001600020805490508610610694576040517f08c379a000000000000000000000000000000000000000000000000000000000815260040161068b90610dec565b60405180910390fd5b6000600160008973ffffffffffffffffffffffffffffffffffffffff1673ffffffffffffffffffffffffffffffffffffffff16815260200190815260200160002087815481106106e7576106e6610e0c565b5b90600052602060002090600502016040518060a00160405290816000820160009054906101000a900473ffffffffffffffffffffffffffffffffffffffff1673ffffffffffffffffffffffffffffffffffffffff1673ffffffffffffffffffffffffffffffffffffffff1681526020016001820154815260200160028201548152602001600382015481526020016004820160009054906101000a900460ff16600281111561079957610798610ac8565b5b60028111156107ab576107aa610ac8565b5b8152505090508060000151816020015182604001518360600151846080015195509550955095509550509295509295909350565b6107e7610865565b600073ffffffffffffffffffffffffffffffffffffffff168173ffffffffffffffffffffffffffffffffffffffff16036108595760006040517f1e4fbdf70000000000000000000000000000000000000000000000000000000081526004016108509190610c89565b60405180910390fd5b610862816108ec565b50565b61086d6109b0565b73ffffffffffffffffffffffffffffffffffffffff1661088b610593565b73ffffffffffffffffffffffffffffffffffffffff16146108ea576108ae6109b0565b6040517f118cdaa70000000000000000000000000000000000000000000000000000000081526004016108e19190610c89565b60405180910390fd5b565b60008060009054906101000a900473ffffffffffffffffffffffffffffffffffffffff169050816000806101000a81548173ffffffffffffffffffffffffffffffffffffffff021916908373ffffffffffffffffffffffffffffffffffffffff1602179055508173ffffffffffffffffffffffffffffffffffffffff168173ffffffffffffffffffffffffffffffffffffffff167f8be0079c531659141344cd1fd0a4f28419497f9722a3daafe3b4186f6b6457e060405160405180910390a35050565b600033905090565b600080fd5b600073ffffffffffffffffffffffffffffffffffffffff82169050919050565b60006109e8826109bd565b9050919050565b6109f8816109dd565b8114610a0357600080fd5b50565b600081359050610a15816109ef565b92915050565b6000819050919050565b610a2e81610a1b565b8114610a3957600080fd5b50565b600081359050610a4b81610a25565b92915050565b60008060408385031215610a6857610a676109b8565b5b6000610a7685828601610a06565b9250506020610a8785828601610a3c565b9150509250929050565b610a9a816109dd565b82525050565b6000819050919050565b610ab381610aa0565b82525050565b610ac281610a1b565b82525050565b7f4e487b7100000000000000000000000000000000000000000000000000000000600052602160045260246000fd5b60038110610b0857610b07610ac8565b5b50565b6000819050610b1982610af7565b919050565b6000610b2982610b0b565b9050919050565b610b3981610b1e565b82525050565b600060a082019050610b546000830188610a91565b610b616020830187610aaa565b610b6e6040830186610aaa565b610b7b6060830185610ab9565b610b886080830184610b30565b9695505050505050565b610b9b81610aa0565b8114610ba657600080fd5b50565b600081359050610bb881610b92565b92915050565b600080600060608486031215610bd757610bd66109b8565b5b6000610be586828701610a06565b9350506020610bf686828701610ba9565b9250506040610c0786828701610ba9565b9150509250925092565b60038110610c1e57600080fd5b50565b600081359050610c3081610c11565b92915050565b600080600060608486031215610c4f57610c4e6109b8565b5b6000610c5d86828701610a06565b9350506020610c6e86828701610a3c565b9250506040610c7f86828701610c21565b9150509250925092565b6000602082019050610c9e6000830184610a91565b92915050565b600060208284031215610cba57610cb96109b8565b5b6000610cc884828501610a06565b91505092915050565b6000602082019050610ce66000830184610ab9565b92915050565b600082825260208201905092915050565b7f446567726565206e616d652063616e6e6f7420626520656d7074790000000000600082015250565b6000610d33601b83610cec565b9150610d3e82610cfd565b602082019050919050565b60006020820190508181036000830152610d6281610d26565b9050919050565b6000606082019050610d7e6000830186610aaa565b610d8b6020830185610aaa565b610d986040830184610ab9565b949350505050565b7f436572746966696361746520696e646578206f7574206f662072616e67650000600082015250565b6000610dd6601e83610cec565b9150610de182610da0565b602082019050919050565b60006020820190508181036000830152610e0581610dc9565b9050919050565b7f4e487b7100000000000000000000000000000000000000000000000000000000600052603260045260246000fd5b6000604082019050610e506000830185610ab9565b610e5d6020830184610b30565b939250505056fea2646970667358221220ddf82c06fd13cf24d41591318215e19fe41b63bf51babf30171485090a87dada64736f6c63430008180033",
  "linkReferences": {},
  "deployedLinkReferences": {}
}